{
  "contractName": "HumanHashesStorage",
  "abi": [
    {
      "constant": true,
      "inputs": [],
      "name": "humanHashesCount",
      "outputs": [
        {
          "name": "",
          "type": "uint256"
        }
      ],
      "payable": false,
      "stateMutability": "view",
      "type": "function"
    },
    {
      "constant": true,
      "inputs": [
        {
          "name": "",
          "type": "bytes32"
        }
      ],
      "name": "humanHashes",
      "outputs": [
        {
          "name": "",
          "type": "bool"
        }
      ],
      "payable": false,
      "stateMutability": "view",
      "type": "function"
    },
    {
      "inputs": [],
      "payable": false,
      "stateMutability": "nonpayable",
      "type": "constructor"
    },
    {
      "constant": false,
      "inputs": [
        {
          "name": "humanDataHash",
          "type": "bytes32"
        }
      ],
      "name": "addHumanHash",
      "outputs": [],
      "payable": false,
      "stateMutability": "nonpayable",
      "type": "function"
    }
  ],
  "bytecode": "0x608060405234801561001057600080fd5b506101cf806100206000396000f300608060405260043610610057576000357c0100000000000000000000000000000000000000000000000000000000900463ffffffff1680631efdcc951461005c5780636c23a0541461008d578063d096ccce146100b8575b600080fd5b34801561006857600080fd5b5061008b6004803603810190808035600019169060200190929190505050610101565b005b34801561009957600080fd5b506100a261017d565b6040518082815260200191505060405180910390f35b3480156100c457600080fd5b506100e76004803603810190808035600019169060200190929190505050610183565b604051808215151515815260200191505060405180910390f35b600080826000191660001916815260200190815260200160002060009054906101000a900460ff1615151561013557600080fd5b6001600081548092919060010191905055506001600080836000191660001916815260200190815260200160002060006101000a81548160ff02191690831515021790555050565b60015481565b60006020528060005260406000206000915054906101000a900460ff16815600a165627a7a72305820315da0ea2318afc3d8a31a32513dd601b167a16aefc9183f7aea56ac45c7d6c30029",
  "source": "pragma solidity 0.4.24;\n\ncontract HumanHashesStorage {\n    mapping(bytes32 => bool) public humanHashes;\n    uint public humanHashesCount;\n\n    constructor() {}\n  \n    function addHumanHash(bytes32 humanDataHash) public {\n        require(!humanHashes[humanDataHash]);\n        humanHashesCount++;\n        humanHashes[humanDataHash] = true;\n    }\n\n    // function register(bytes32 humanDataHash) public {\n    //     require(!humanHashes[humanDataHash]);\n    //     addHumanHash(humanDataHash);\n    // }\n\n}",
  "sourcePath": "/home/adrien/projects/dapp-human-chainid/blockchain/contracts/lib/HumanHashesStorage.sol",
  "compiler": {
    "name": "solc",
    "version": "0.4.24+commit.e67f0147.Emscripten.clang"
  },
  "schemaVersion": "2.0.1",
  "updatedAt": "2018-11-27T08:53:24.351Z"
}