{
  "contractName": "HumainChainIdLogic",
  "abi": [
    {
      "constant": true,
      "inputs": [],
      "name": "humanHashesExternalStorage",
      "outputs": [
        {
          "name": "",
          "type": "address"
        }
      ],
      "payable": false,
      "stateMutability": "view",
      "type": "function"
    },
    {
      "inputs": [
        {
          "name": "_externalStorageAddress",
          "type": "address"
        }
      ],
      "payable": false,
      "stateMutability": "nonpayable",
      "type": "constructor"
    },
    {
      "constant": false,
      "inputs": [
        {
          "name": "humanDataHash",
          "type": "bytes32"
        }
      ],
      "name": "register",
      "outputs": [],
      "payable": false,
      "stateMutability": "nonpayable",
      "type": "function"
    }
  ],
  "bytecode": "0x608060405234801561001057600080fd5b5060405160208061026083398101806040528101908080519060200190929190505050806000806101000a81548173ffffffffffffffffffffffffffffffffffffffff021916908373ffffffffffffffffffffffffffffffffffffffff160217905550506101dd806100836000396000f30060806040526004361061004c576000357c0100000000000000000000000000000000000000000000000000000000900463ffffffff168063c4600d3114610051578063e1fa8e84146100a8575b600080fd5b34801561005d57600080fd5b506100666100d9565b604051808273ffffffffffffffffffffffffffffffffffffffff1673ffffffffffffffffffffffffffffffffffffffff16815260200191505060405180910390f35b3480156100b457600080fd5b506100d760048036038101908080356000191690602001909291905050506100fe565b005b6000809054906101000a900473ffffffffffffffffffffffffffffffffffffffff1681565b6000809054906101000a900473ffffffffffffffffffffffffffffffffffffffff1673ffffffffffffffffffffffffffffffffffffffff16631efdcc95826040518263ffffffff167c0100000000000000000000000000000000000000000000000000000000028152600401808260001916600019168152602001915050600060405180830381600087803b15801561019657600080fd5b505af11580156101aa573d6000803e3d6000fd5b50505050505600a165627a7a723058208c687d3f7dd7928e9850d35fb86827e61b959cdbfb96f1bcd0b9e84ed4a365400029",
  "source": "pragma solidity 0.4.24;\n\nimport \"./lib/HumanHashesStorage.sol\";\n\n\ncontract HumainChainIdLogic {\n    HumanHashesStorage public humanHashesExternalStorage;\n    // mapping(bytes32 => bool) public humanHashes;\n    // uint public humanHashesCount;\n\n    constructor(address _externalStorageAddress) public {\n        humanHashesExternalStorage = HumanHashesStorage(_externalStorageAddress);\n    }\n    // function addHumanHash(bytes32 humanDataHash) private {\n    //     humanHashesCount++;\n    //     humanHashes[humanDataHash] = true;\n    // }\n\n    function register(bytes32 humanDataHash) public {\n        humanHashesExternalStorage.addHumanHash(humanDataHash);\n    }\n\n}",
  "sourcePath": "/home/adrien/projects/dapp-human-chainid/blockchain/contracts/HumainChainIdLogic.sol",
  "compiler": {
    "name": "solc",
    "version": "0.4.24+commit.e67f0147.Emscripten.clang"
  },
  "schemaVersion": "2.0.1",
  "updatedAt": "2018-11-26T15:39:30.454Z"
}