{
  "contractName": "HumanHashStorage",
  "abi": [
    {
      "constant": true,
      "inputs": [
        {
          "name": "",
          "type": "bytes32"
        }
      ],
      "name": "humanHashStructs",
      "outputs": [
        {
          "name": "isActive",
          "type": "bool"
        }
      ],
      "payable": false,
      "stateMutability": "view",
      "type": "function"
    },
    {
      "anonymous": false,
      "inputs": [
        {
          "indexed": false,
          "name": "humanHash",
          "type": "bytes32"
        },
        {
          "indexed": false,
          "name": "msg",
          "type": "string"
        }
      ],
      "name": "ProfileCreated",
      "type": "event"
    },
    {
      "anonymous": false,
      "inputs": [
        {
          "indexed": false,
          "name": "humanHash",
          "type": "bytes32"
        },
        {
          "indexed": false,
          "name": "msg",
          "type": "string"
        }
      ],
      "name": "ProfileHibernated",
      "type": "event"
    },
    {
      "constant": true,
      "inputs": [
        {
          "name": "_humanHash",
          "type": "bytes32"
        }
      ],
      "name": "isProfileStored",
      "outputs": [
        {
          "name": "isIndeed",
          "type": "bool"
        }
      ],
      "payable": false,
      "stateMutability": "view",
      "type": "function"
    },
    {
      "constant": false,
      "inputs": [
        {
          "name": "_humanHash",
          "type": "bytes32"
        }
      ],
      "name": "registerProfile",
      "outputs": [
        {
          "name": "succes",
          "type": "bool"
        }
      ],
      "payable": false,
      "stateMutability": "nonpayable",
      "type": "function"
    },
    {
      "constant": false,
      "inputs": [
        {
          "name": "_humanHash",
          "type": "bytes32"
        }
      ],
      "name": "hibernateProfile",
      "outputs": [
        {
          "name": "success",
          "type": "bool"
        }
      ],
      "payable": false,
      "stateMutability": "nonpayable",
      "type": "function"
    }
  ],
  "bytecode": "0x608060405234801561001057600080fd5b50610264806100206000396000f3006080604052600436106100615763ffffffff7c01000000000000000000000000000000000000000000000000000000006000350416630f6ed2ec8114610066578063b9eebac414610092578063f0b47bb8146100aa578063f616db45146100c2575b600080fd5b34801561007257600080fd5b5061007e6004356100da565b604080519115158252519081900360200190f35b34801561009e57600080fd5b5061007e600435610175565b3480156100b657600080fd5b5061007e60043561020e565b3480156100ce57600080fd5b5061007e600435610223565b60006100e582610223565b156100ef57600080fd5b60008281526020818152604091829020805460ff1916600117905581518481529081018290526010818301527f4861736820616464656420746f20534300000000000000000000000000000000606082015290517ff7fdf7bbee6deeb34c89b3883e4f8b4cc559fe1bd25851288664f607d2fd199d9181900360800190a1506001919050565b600061018082610223565b151561018b57600080fd5b60008281526020818152604091829020805460ff191690558151848152908101829052601b818301527f48617368207374617475732073657420746f20696e6163746976650000000000606082015290517f95510e8f6dac12a2de6e8595afd87c0cafebd3108062ccde4be154a41b958d809181900360800190a1506001919050565b60006020819052908152604090205460ff1681565b60009081526020819052604090205460ff16905600a165627a7a7230582027ba7f0c970cad99781ee0da7d4a8bd029cfdfdc9bdcced50b28d9e9c3dce5800029",
  "source": "pragma solidity ^0.4.24;\n\n\ncontract HumanHashStorage {\n\n    struct HumanHashStruct {\n        bool isActive;\n    }\n\n    event ProfileCreated(\n        bytes32 humanHash,\n        string msg\n    );\n\n    event ProfileHibernated(\n        bytes32 humanHash,\n        string msg\n    );\n\n    mapping (bytes32 => HumanHashStruct) public humanHashStructs;\n\n    function isProfileStored(bytes32 _humanHash) public constant returns(bool isIndeed) {\n        return humanHashStructs[_humanHash].isActive;\n    }\n\n    function registerProfile(bytes32 _humanHash) public returns(bool succes) {\n        require(!isProfileStored(_humanHash));\n        humanHashStructs[_humanHash].isActive = true;\n        emit ProfileCreated(_humanHash, \"Hash added to SC\");\n        return true;\n    }\n\n    function hibernateProfile(bytes32 _humanHash) public returns(bool success) {\n        require(isProfileStored(_humanHash));\n        humanHashStructs[_humanHash].isActive = false;\n        emit ProfileHibernated(_humanHash, \"Hash status set to inactive\");\n        return true;\n    }\n}",
  "sourcePath": "/home/adrien/projects/huchaindrizzle/contracts/HumanHashStorage.sol",
  "compiler": {
    "name": "solc",
    "version": "0.4.24+commit.e67f0147.Emscripten.clang"
  },
  "schemaVersion": "2.0.1",
  "updatedAt": "2018-11-28T13:37:50.275Z"
}